S01F000042617474657269656D616E61676D656E7473797374656D2E7372656378
S11300000C9434010C9451010C9451010C94510141
S11300100C9451010C9451010C9451010C94510114
S11300200C9451010C9451010C9451010C94510104
S11300300C9451010C9418030C9451010C9451012B
S11300400C9451010C9451010C942F030C94510104
S11300500C9451010C9451010C9451010C945101D4
S11300600C9451010C945101000099C5ABCE320B94
S1130070CFD8561D6416FDD307F49E31AC3A35FF34
S1130080C82C51E963E2FA2797AD0E683C63A5A634
S11300905875C1B0F3BB6A7E9059099C3B97A25234
S11300A05F81C644F44F6D8A2E5BB79E85951C50C4
S11300B0E18378464A4DD38829AFB06A82611BA494
S11300C0E6777FB24DB9D47CB9F6203312388BFD74
S11300D0762EEFEBDDE04425BE0227C715CC8C0954
S11300E071DAE81FDA1443D1C5F35C366E3DF7F8D4
S11300F00A2B93EEA1E53820C2075BC269C9F00C54
S11301000DDF941AA6113FD4525ECB9BF990605533
S11301109D8604433648AF8D55AACC6FFE6467A113
S11301209A7203B731BCA879EBA8726D4066D9A363
S11301302470BDB58FBE167BEC5C75994792DE5773
S11301402384BA41884A118F7C05E5C0D7CB4E0E73
S1130150B3DD2A18181381D67BF1E234D03F49FA73
S1130160B4292DEC1FE7862213A28A67B86C21A953
S1130170DC7A45BF77B4EE7114568D93BF98265D33
S1130180DB8E424B7040E985840F1DCA2FC1B60433
S11301904BD7D212E01979DC83FB1A3E2835B1F033
S11301A04C23D5E6E7ED7E283DF9A43C96370FF2C3
S11301B0F2216BE459EFC02A3A0DA3C891C3080693
S11301C0F5D56C105E1BC7DEAA543391019A985F73
S11301D0658CFC49CE425787ADA03465066E9FAB53
S11301E06278FBBDC9B65073D6514F947D9FE45AD3
S11301F01989804CB2472B82D1A548607A6BE3AE53
S11302001E7D87B8B5B32C7641FCD839EA3273F732
S11302108E2417E125EABC2F4608DFCDEDC6740312
S113022089D01015221EBBDBF80A61CF53C4CA0162
S113023037D2AE179C1C05D9FFFE663B5430CDF572
S11302403026A9E39BE8022D6FA7F662C4695DAC72
S1130250A07F39BA0BB192746853F196C39D5A5872
S1130260A78B3E4E0C45958011241FBECFEFD8E0DE
S1130270DEBFCDBF11E0A0E0B1E0E2E0FEE002C0ED
S113028005900D92AA32B107D9F721E0AAE2B1E0B4
S113029001C01D92AC32B207E1F70E943F030C94F7
S11302A0FF060C9400002A9883EF91E00197F1F780
S11302B000C000002A9A0895882311F1DB018150BF
S11302C090E00196680F791F80E190E02D91FC0188
S11302D0EE0FEF2FEE1FFF0BF195E227FF27EE0F36
S11302E0FF1FE859FF4F249130E03196E491982F95
S11302F088273E2B82279327A617B70739F702C012
S113030080E190E0880F991F0895CF93DF9300D088
S1130310CDB7DEB78A8397709983BE016F5F7F4F35
S113032082E00E945C010F900F90DF91CF910895BD
S11303300F931F93CF93DF93EC010E948501182F35
S1130340092F0E9453012A988D2F87700E94FE0462
S11303508C2F0E94FE04802F0E94FE04812F8E7F2A
S11303600E94FE04C33287E0D80729F0C836D4407F
S113037041F4C9E001C0C9E08FEF0E94FE04C150FE
S1130380D9F72A9ADF91CF911F910F910895EF9297
S1130390FF920F931F93CF93DF93C82FD92F8B0115
S11303A00E948501F82EE92E0E9453012A988D2F70
S11303B087700E94FE048C2F0E94FE048E2D0E94E2
S11303C0FE048F2D8E7F0E94FE04E801085F1F4FFC
S11303D08FEF0E94FE048993C017D107C9F72A9AA8
S11303E0DF91CF911F910F91FF90EF900895CF92DD
S11303F0DF92EF92FF920F931F93CF93DF93CDB7CA
S1130400DEB7E2970FB6F894DEBF0FBECDBFCE01C4
S113041001966C0182E3F60111928A95E9F70E9434
S1130420530187E293E00E949801FFE52AEE80E001
S1130430F15020408040E1F700C0000087E295E0E1
S11304400E9498019FE5EAEEF0E09150E040F04010
S1130450E1F700C000008FE295E00E9498012FE5CB
S11304608AEE90E0215080409040E1F700C0000007
S1130470B60184E090E00E94C701BE01695F7F4F2E
S113048086E090E00E94C701BE01635F7F4F88E071
S113049090E00E94C701BE016D5E7F4F8AE090E04C
S11304A00E94C701BE01675E7F4F8CE090E00E940E
S11304B0C701BE01615E7F4F8EE090E00E94C701DC
S11304C0BE016B5D7F4F80E190E00E94C701BE01D9
S11304D0655D7F4F82E190E00E94C70186017E0145
S11304E0EDE2EE0EF11CF601D12C818190E0982F03
S11304F088272081822B8535954911F0DD24D394FA
S11305003296EE16FF0689F787E493E00E9498017D
S11305108FE59AEEE0E081509040E040E1F700C0C2
S1130520000087E495E00E949801FFE52AEE80E050
S1130530F15020408040E1F700C000008FE495E0D6
S11305400E9498019FE5EAEEF0E09150E040F0400F
S1130550E1F700C00000BE016F5F7F4F84E090E0D0
S11305600E94C701BE01695F7F4F86E090E00E9450
S1130570C701BE01635F7F4F88E090E00E94C7011E
S1130580BE016D5E7F4F8AE090E00E94C701BE010C
S1130590675E7F4F8CE090E00E94C701BE01615E00
S11305A07F4F8EE090E00E94C701BE016B5D7F4FDC
S11305B080E190E00E94C701BE01655D7F4F82E14A
S11305C090E00E94C701F801818190E0982F88276C
S11305D02081822B8A3A9A4619F02D2D2260D22E40
S11305E00E5F1F4F0E151F0571F785E197E00E94FE
S11305F098010E945301BE016F5F7F4F82E190E03A
S11306000E94C7018E8181FF03C08D2D8460D82E86
S11306108D2DE2960FB6F894DEBF0FBECDBFDF91ED
S1130620CF911F910F91FF90EF90DF90CF9008959D
S11306301F920F920FB60F9211248F939F9381E014
S113064080932B018FE791EC909385008093840035
S11306509F918F910F900FBE0F901F9018951F922E
S11306600F920FB60F9211248F938091C60080933E
S11306702A018F910F900FBE0F901F901895CF9362
S1130680DF93CDB7DEB7EE970FB6F894DEBF0FBE9B
S1130690CDBF80EE8093640019821A821B821C8273
S11306A0FE01359688E1DF011D928A95E9F7789677
S11306B080E2DF011D928A95E9F78CE284B917B8CC
S11306C081EE8AB91BB80E94F6040E9404058DE0ED
S11306D091E00E94280580E091E00E9428050E9494
S11306E0F7010E94C6040E94D404789480E191E04A
S11306F00E94280581E197E00E94980183E197E038
S11307000E94980182E197E00E9498018FE695E0AB
S11307100E949801212C1DAE00E010E0B2E0BEAFB3
S11307200F2EF4EF8F2E99249394F02D7E01E5E3A0
S1130730EE0EF11C0F2EF8EE6F2EF3E07F2EF02D4F
S11307400F2EF0ED4F2EF7E05F2EF02D80912A0151
S1130750843721F410922A01F1E0FEAF80912B013D
S1130760813021F40F5F1F4F10922B0198013695B1
S1130770279536952795A5ECB0E20E94F006929550
S113078082958F7089279F708927889D9001899D04
S1130790300D989D300D11240217130781F580EE5A
S11307A092E00E949801BE01635E7F4F84E090E076
S11307B00E94C701BE016D5D7F4F86E090E00E94FC
S11307C0C701BE01675D7F4F88E090E00E94C701CA
S11307D0BE01615D7F4F8AE090E00E94C701FE0187
S11307E07D96DE011596818190E0982F88272081DF
S11307F0822B8D939D933296EE15FF05A1F79801F8
S1130800369527953695279536952795A5ECB0E22C
S11308100E94F006929582958F7089279F70892790
S1130820869D9001879D300D969D300D11240217F1
S1130830130709F08EC081E00E94E204BC0180E04D
S113084090E00E943E069B01AC0160E070E889E8FC
S113085099E40E94CC0520E030E84FE953E40E947B
S1130860C705181614F0589A01C058989801329583
S113087022952F7023273F702327A3E6B0E10E941F
S1130880F006969587959695879596958795849D78
S11308909001859D300D949D300D1124021713078E
S11308A009F04FC0FE01359660E040E050E020E1E1
S11308B034EA819191918217930710F49C016DAFF2
S11308C04817590710F4AC01262E6F5F6C3089F776
S11308D02EAD2130B1F55E0187E1A81AB1086E0191
S11308E0A5E0CA0ED11C312CBBE0B31520F4F501F0
S11308F08081918103C0D6018D919C910E9437051E
S113090087E291E00E9428053394B2E0AB0EB11C5B
S1130910E2E0CE0ED11CFEE03F12E6CF2DAD822FD9
S113092090E001960E94370587E291E00E94280535
S1130930822D90E001960E9437058DE091E00E949F
S11309402805003187E2180709F000CF00E010E025
S1130950FDCE9801329522952F7023273F702327CF
S1130960A3E6B0E10E94F006969587959695879543
S113097096958795849D9001859D300D949D300DAD
S113098011240217130709F48DCFDBCF10928000D6
S113099081E08093810080936F008FE791EC9093C6
S11309A08500809384000895EAE7F0E083E880837B
S11309B080E480937C00808180648083808186FDD4
S11309C0FDCF0895EAE7F0E0908190649083ECE72E
S11309D0F0E09081892B8083EAE7F0E0808186FD56
S11309E0FDCF8091780090917900089584B18C6254
S11309F084B924982A9A8DE58CBD08958EBD0DB4D2
S1130A0007FEFDCF8EB50895519A50981092C500F7
S1130A108CE08093C400E0ECF0E08081826080830D
S1130A20A2ECB0E08C918F7B8C93E1ECF0E08081C0
S1130A308861808386E08C938081806880830895B8
S1130A40E0ECF0E0908195FFFDCF8093C60008951F
S1130A50CF93DF93EC018881882331F021960E94A3
S1130A60200589918111FBCFDF91CF910895AF9239
S1130A70BF92CF92DF92EF92FF920F931F93CF9387
S1130A80AC019C01329522952F7023273F702327B8
S1130A90A7E4B3E00E94F0066C01D694C794D69400
S1130AA0C794D694C79480EF98EDC89EF001C99E70
S1130AB0F00D1124E40FF51F9F0136952795369507
S1130AC0279536952795A5ECB0E20E94F0067C01A7
S1130AD0F694E794F694E794F694E794F694E794FE
S1130AE088E19CEFE89E9001E99E300D1124E20F0D
S1130AF0F31F9F013695279536952795ABE7B4E10B
S1130B000E94F0068C01169507959F0184E6089FC4
S1130B10201931091124ADECBCEC0E94F0065C01F3
S1130B20B694A794B694A794B694A794C0E3C40FBC
S1130B3080EFC89EC00D112488E1E89EC00D1124E9
S1130B4084E6089FC019112480E38C0D0E942005BF
S1130B5080E38E0D0E94200580E3800F0E94200513
S1130B6080E38A0D0E942005AA0C8A2D880F880F25
S1130B70A80E8C2F8A190E942005CF911F910F91E6
S1130B80FF90EF90DF90CF90BF90AF9008950E94B8
S1130B907B0608F481E008950E94E0050C94B606F3
S1130BA00E94AF0658F00E94A80640F029F45F3F67
S1130BB029F00C949F0651110C94EA060C94A50696
S1130BC00E94C70668F39923B1F3552391F3951B4B
S1130BD0550BBB27AA2762177307840738F09F5F5A
S1130BE05F4F220F331F441FAA1FA9F335D00E2EC7
S1130BF03AF0E0E832D091505040E695001CCAF734
S1130C002BD0FE2F29D0660F771F881FBB1F2617F6
S1130C1037074807AB07B0E809F0BB0B802DBF01CD
S1130C20FF2793585F4F3AF09E3F510578F00C949C
S1130C309F060C94EA065F3FE4F3983ED4F386954E
S1130C4077956795B795F7959F5FC9F7880F911DBD
S1130C509695879597F90895E1E0660F771F881FA9
S1130C60BB1F621773078407BA0720F0621B730B5C
S1130C70840BBA0BEE1F88F7E0950895E89409C039
S1130C8097FB3EF490958095709561957F4F8F4FBB
S1130C909F4F9923A9F0F92F96E9BB279395F695D1
S1130CA0879577956795B795F111F8CFFAF4BB0F4F
S1130CB011F460FF1BC06F5F7F4F8F4F9F4F16C0B3
S1130CC0882311F096E911C0772321F09EE8872F3D
S1130CD0762F05C0662371F096E8862F70E060E0F9
S1130CE02AF09A95660F771F881FDAF7880F969572
S1130CF0879597F90895990F0008550FAA0BE0E816
S1130D00FEEF16161706E807F907C0F012161306C9
S1130D10E407F50798F0621B730B840B950B39F409
S1130D200A2661F0232B242B252B21F408950A266F
S1130D3009F4A140A6958FEF811D811D089597F9AF
S1130D409F6780E870E060E008959FEF80EC08956D
S1130D5000240A9416161706180609060895002496
S1130D600A9412161306140605060895092E039410
S1130D70000C11F4882352F0BB0F40F4BF2B11F484
S1130D8060FF04C06F5F7F4F8F4F9F4F089557FDE3
S1130D909058440F551F59F05F3F71F04795880FE5
S1130DA097FB991F61F09F3F79F08795089512167C
S1130DB013061406551FF2CF4695F1DF08C0161628
S1130DC017061806991FF1CF8695710561050894D9
S1130DD00895E894BB2766277727CB0197F90895F0
S1130DE0A29FB001B39FC001A39F700D811D112468
S1130DF0911DB29F700D811D1124911D0895F894C9
S1050E00FFCF1E
S1130E025374617274652053797374656D0D0A00AD
S1130E1253656C6273747465737420626573746170
S10D0E226E64656E0D0A003B2000AB
S9030000FC
